:100000000C9434000C943E000C943E000C943E0082
:100010000C943E000C943E000C943E000C943E0068
:100020000C943E000C943E000C943E000C943E0058
:100030000C943E000C943E000C943E000C943E0048
:100040000C943E000C943E000C943E000C943E0038
:100050000C943E000C943E000C943E000C943E0028
:100060000C943E000C943E0011241FBECFEFD8E04C
:10007000DEBFCDBF0E9440000C94B0000C94000085
:100080002CE32AB920E224B960E271E065B981115C
:100090002FC091112DC024E0552309F455C08823A9
:1000A00009F456C030E090E0442321F0552311F0CC
:1000B00081112CC080E04BB1842B8BB98BB1892B83
:1000C0008BB98BB1832B8BB98BB1282B2BB999B101
:1000D00096FB992790F949B1441F4427441F53B117
:1000E000517083B18695817015B865B9882389F2FE
:1000F00041110EC051112EC0282F2727220F220F89
:10010000992311F130E090E08111D4CF80E2D3CF78
:10011000992321F1552351F020E081110BC030E0EB
:1001200091110CC0442321F090E1C0CF20E030E0D9
:1001300090E0C0CF992309F4B5CF30E04111F8CF5A
:10014000552309F390E0B6CF811102C030E0EACF29
:1001500038E0E8CF9111E0CF20E0A1CF20E09CCFA4
:04016000F894FFCF41
:00000001FF
